:100000000C9462000C948A000C948A000C948A0070
:100010000C948A000C948A000C948A000C948A0038
:100020000C948A000C948A000C948A000C948A0028
:100030000C948A000C948A000C948A000C948A0018
:100040000C94E0020C948A000C948A000C948A00B0
:100050000C948A000C948A000C948A000C948A00F8
:100060000C948A000C948A000000000024002700F1
:100070002A0000000000250028002B0000000000DE
:1000800023002600290004040404040404040202DA
:100090000202020203030303030301020408102007
:1000A0004080010204081020010204081020000012
:1000B0000008000201000003040700000000000027
:1000C00000002B0411241FBECFEFD8E0DEBFCDBF50
:1000D00011E0A0E0B1E0EEE0F9E002C005900D9281
:1000E000AE30B107D9F721E0AEE0B1E001C01D921A
:1000F000A633B207E1F710E0C2E6D0E004C02197D2
:10010000FE010E947F04C136D107C9F70E942A036D
:100110000C9485040C940000AF92BF92CF92DF92B2
:10012000EF92FF920F931F93CF93DF936C017B01AC
:100130008B01040F151FEB015E01AE18BF08C0173D
:10014000D10759F06991D601ED91FC910190F081B0
:10015000E02DC6010995892B79F7C501DF91CF9173
:100160001F910F91FF90EF90DF90CF90BF90AF90D5
:100170000895833081F028F4813099F08230A9F01D
:1001800008958730A9F08830C9F08430B1F48091A7
:1001900080008F7D03C0809180008F7780938000E6
:1001A000089584B58F7784BD089584B58F7DFBCF86
:1001B0008091B0008F778093B00008958091B00057
:1001C0008F7DF9CF1F93CF93DF93282F30E0F90174
:1001D000E255FF4F8491F901E656FF4FD491F901A2
:1001E000EA57FF4FC491CC23A9F0162F81110E942A
:1001F000B900EC2FF0E0EE0FFF1FEE58FF4FA59176
:10020000B4918FB7F894EC91111108C0D095DE230A
:10021000DC938FBFDF91CF911F910895DE2BF8CF34
:10022000CF93DF9390E0FC01E656FF4F24918A576D
:100230009F4FFC0184918823D1F090E0880F991F93
:10024000FC01E859FF4FA591B491FC01EE58FF4F16
:10025000C591D491623071F49FB7F8943C91822F8C
:10026000809583238C93E8812E2B28839FBFDF9179
:10027000CF9108958FB7F894EC912E2B2C938FBFCC
:10028000F6CF089590E080E00895CF93DF93EC01DE
:1002900060E08E810E94E20061E08E810E94E200B7
:1002A00060E08E810E94E2008BE891E00197F1F717
:1002B000DF91CF910895CF92DF92EF92FF920F934B
:1002C0001F93CF93DF936C017C0187E0E80EF11C54
:1002D000D0E0C0E0062F10E0B8010C2E02C07595EA
:1002E00067950A94E2F76170F70181917F010E949E
:1002F000E2002196C430D10579F7C601DF91CF9194
:100300001F910F91FF90EF90DF90CF900C944501DB
:10031000CF92DF92EF92FF920F931F93CF93DF93D1
:10032000EC01F62E642F8C810E94E2008D818F3FBC
:1003300019F060E00E94E2000F2D10E08F8584FF2D
:1003400025C06E0187E0C80ED11CF12CE12CB8014C
:100350000E2C02C0759567950A94E2F76170F6015C
:1003600081916F010E94E200FFEFEF1AFF0A88E01F
:10037000E816F10461F7CE01DF91CF911F910F9143
:10038000FF90EF90DF90CF900C944501B80184E08E
:10039000759567958A95E1F7CE010E945B016F2DF7
:1003A000CE01DF91CF911F910F91FF90EF90DF90E1
:1003B000CF900C945B0140E0682F8EE191E00C94AB
:1003C0008801CF93DF93823029F490912D019860BA
:1003D00090932D01809331011092320180E480933B
:1003E000330180E18093340180E58093350161E041
:1003F000809122010E941001809123018F3F19F00A
:1004000061E00E94100161E0809124010E941001CE
:10041000CEE1D1E09E012E51314080912D0184FD2D
:100420000BC084E090E021962817390744F461E07E
:100430008E810E941001EECF88E090E0F4CF8BE334
:100440009DE00197F1F760E0809122010E94E200B7
:1004500060E0809124010E94E200809123018F3F9F
:1004600019F060E00E94E20080912D0184FD39C006
:1004700063E08EE191E00E945B01CBE4D6E4CE0123
:100480000197F1F763E08EE191E00E945B01219713
:10049000F1F763E08EE191E00E945B0183E592E079
:1004A0000197F1F762E08EE191E00E945B0180919B
:1004B0002D0180620E94DB0184E080932E018CE09C
:1004C0000E94DB0181E00E94DB018BE39FE1019749
:1004D000F1F782E080932F0186E0DF91CF910C94B9
:1004E000DB0180620E94DB018BE496E40197F1F767
:1004F00080912D0180620E94DB0183E592E00197EB
:10050000F1F780912D0180620E94DB01D0CF41E0A4
:100510000E94880181E090E00895CF92DF92EF92EF
:10052000FF920F931F93CF93DF93CDB7DEB7A197C1
:100530000FB6F894DEBF0FBECDBF282F30E050E0DD
:1005400040E019A28E010F5D1F4F8AE0C82ED12C0A
:10055000E12CF12CCA01B901A70196010E945D04AA
:10056000605DF80162938F01211531054105510548
:1005700089F790E080E0309761F001900020E9F782
:100580003197AF01401B510BB8018EE191E00E9401
:100590008C00A1960FB6F894DEBF0FBECDBFDF91E1
:1005A000CF911F910F91FF90EF90DF90CF90089522
:1005B00041E050E06CE071E08EE191E00C948C0041
:1005C0001F920F920FB60F9211242F933F938F9388
:1005D0009F93AF93BF938091130190911401A091C9
:1005E0001501B09116013091120123E0230F2D3730
:1005F00058F50196A11DB11D20931201809313019E
:1006000090931401A0931501B093160180910E01EF
:1006100090910F01A0911001B09111010196A11DBF
:10062000B11D80930E0190930F01A0931001B09320
:100630001101BF91AF919F918F913F912F910F9099
:100640000FBE0F901F90189526E8230F0296A11D4C
:10065000B11DD2CF789484B5826084BD84B58160A9
:1006600084BD85B5826085BD85B5816085BD80917D
:100670006E00816080936E001092810080918100F5
:1006800082608093810080918100816080938100ED
:10069000809180008160809380008091B1008460AF
:1006A0008093B1008091B00081608093B000809110
:1006B0007A00846080937A0080917A0082608093CF
:1006C0007A0080917A00816080937A0080917A002C
:1006D000806880937A001092C10082E00E94E1015C
:1006E00061E087E00E94100161E087E00E94E20083
:1006F00062E08EE00E94100162E08FE00E94100133
:1007000062E080E10E9410010CEB10E098EAE92E13
:1007100090E0F92E24E9C22E20E0D22E3BE3A32E56
:100720003FE1B32EC0E0D0E02FB7F89480911301E1
:1007300090911401A0911501B09116012FBF409125
:100740001A0150911B0160911C0170911D01841BC5
:10075000950BA60BB70B893E9340A105B10508F494
:100760006AC02FB7F8948091130190911401A09161
:100770001501B09116012FBF80931A0190931B01B0
:10078000A0931C01B0931D01809119018F5F8C33E0
:1007900008F057C080931901809118018C3338F00C
:1007A00080911701109218018F5F8093170180913B
:1007B0001701883110F010921701F8018491F701A8
:1007C0009491F6019490992061F081110E94B900F2
:1007D000E92DF0E0EE0FFF1FE458FF4FA591B49113
:1007E0008C9181E00E94DB01C5010197F1F78091B6
:1007F00017010E948D020E94D802809118010E9468
:100800008D020E94D802809119010E948D02E09110
:100810003101E230F0F4E150F0E0E25EFE4F848915
:1008200080680E94DB0181E00E948D020E94D80254
:1008300081E00E948D02209709F476CF0E9400008B
:1008400073CF10921901809118018F5F8093180166
:10085000A3CFE1E0E1CFEEE1F1E01382128284E088
:1008600091E0918380838CE084838FEF85838BE09C
:10087000868385E0878384E0808783E0818782E0C8
:1008800082871386148615861686178681E00E9455
:10089000E1012FB7F8948091130190911401A09178
:1008A0001501B09116012FBF80931A0190931B017F
:1008B000A0931C01B0931D010895A1E21A2EAA1B5A
:1008C000BB1BFD010DC0AA1FBB1FEE1FFF1FA21700
:1008D000B307E407F50720F0A21BB30BE40BF50BFD
:1008E000661F771F881F991F1A9469F76095709586
:1008F000809590959B01AC01BD01CF010895EE0F4D
:0E090000FF1F0590F491E02D0994F894FFCFAD
:0E090E000000000087028C00420141013A0007
:00000001FF
